:0400000020EF1AF0E3
:10060000003F065B4F666D7D077F6F777C395E79B3
:0F061000710046696E616C697A61646121000056
:10062000400E436E1F0E446E000E456E000E466E69
:1006300022EE00F010EE1BF01F0EDBCFE3FFE8060A
:10064000FCE21B0E096E000E0A6E000E0C6E200EF0
:100650000B6EBFEC19F0070E026ED00E016E92EC1D
:100660001CF0E00E096E010E0A6E000E0C6E200EDC
:100670000B6EBFEC19F00F0E096E000E85EC1DF02D
:100680000F0E3DEC1BF0010E826EA0EF05F03B500B
:100690003C10D8A44EEF03F050EF03F05CEF03F0F2
:1006A000FF0E4326FF0E4422FF0E4522FF0E462278
:1006B000000E3C6E0C0E3B6E700E431809E1170ED7
:1006C000441845104610D8A468EF03F06AEF03F011
:1006D00081EF03F04B0EF2EC1BF0000E826EC00EA9
:1006E000096E010E0A6E000E0C6E200E0B6EBFEC32
:1006F00019F00A0E096E000E85EC1DF00F0E3DEC90
:100700001BF0A00E431809E10F0E441845104610C7
:10071000D8A48DEF03F08FEF03F0A6EF03F0000EE7
:10072000F2EC1BF0010E846EE00E096E020E0A6EF2
:10073000000E0C6E200E0B6EBFEC19F00D0E096E44
:10074000000E85EC1DF00F0E3DEC1BF0D00E431893
:1007500009E1070E441845104610D8A4B2EF03F083
:10076000B4EF03F0CBEF03F0000E846E4B0EF2EC0F
:100770001BF0C00E096E020E0A6E000E0C6E200EEB
:100780000B6EBFEC19F00A0E096E000E85EC1DF021
:100790000F0E3DEC1BF0640E056E000E066E000E93
:1007A000076E000E086E43C001F044C002F045C061
:1007B00003F046C004F0C5EC16F001C00FF002C013
:1007C00010F003C011F004C012F00A0E136E000EF8
:1007D000146E000E156E000E166E49EC19F012BE66
:1007E000FFEF03F012501110101007E1060E0F5C1E
:1007F000D8B0FDEF03F0FFEF03F028EF04F0030E95
:10080000196E0A0E056E000E066E000E076E000EC3
:10081000086E43C001F044C002F045C003F046C07A
:1008200004F0C5EC16F001C00FF002C010F003C0D8
:1008300011F004C012F00A0E136E000E146E000EBA
:10084000156E000E166E49EC19F00F50C4EC1CF03A
:10085000000E026E020E016EA2EC1DF0640E056E1B
:10086000000E066E000E076E000E086E43C001F00B
:1008700044C002F045C003F046C004F0C5EC16F0D9
:1008800001C00FF002C010F003C011F004C012F05C
:100890000A0E136E000E146E000E156E000E166E0C
:1008A00049EC19F012BE62EF04F012501110101052
:1008B00007E1060E0F5CD8B060EF04F062EF04F0C1
:1008C0008BEF04F0020E196E640E056E000E066EBC
:1008D000000E076E000E086E43C001F044C002F027
:1008E00045C003F046C004F0C5EC16F001C00FF09F
:1008F00002C010F003C011F004C012F00A0E136E13
:10090000000E146E000E156E000E166E49EC19F0F6
:100910000F50C4EC1CF0640E056E000E066E000E47
:10092000076E000E086E43C001F044C002F045C0DF
:1009300003F046C004F0C5EC16F001C00FF002C091
:1009400010F003C011F004C012F00A0E136E000E76
:10095000146E000E156E000E166E49EC19F012BEE4
:10096000BDEF04F012501110101009E1060E0F5CDB
:10097000D8A0BDEF04F0BFEF04F031EF05F0000E9A
:100980003F6E000E406E000E416E000E426E3FC084
:1009900001F040C002F041C003F042C004F0000E7C
:1009A000056E000E066E800E076E400E086ECFECD0
:1009B00017F0D8A0DEEF04F0E0EF04F0E2EF04F06F
:1009C00031EF05F0000E3E6E000E3D6EFF0E432629
:1009D000FF0E4422FF0E4522FF0E46223D4A3E2ACC
:1009E0003EBEFCEF04F03E5009E10A0E3D5CD8A08B
:1009F000FCEF04F0FEEF04F0E6EF04F03FC001F07E
:100A000040C002F041C003F042C004F0000E056E89
:100A1000000E066E800E076E3F0E086E04EC0EF0A0
:100A200001C03FF002C040F003C041F004C042F0FA
:100A30003FC001F040C002F041C003F042C004F0EA
:100A4000000E056E000E066E800E076E400E086EDC
:100A5000CFEC17F0D8A02FEF05F031EF05F0E2EF63
:100A600004F0000E026E020E016EA2EC1DF0010EEB
:100A7000196EE80E056E030E066E000E076E000E70
:100A8000086E43C001F044C002F045C003F046C008
:100A900004F0C5EC16F001C00FF002C010F003C066
:100AA00011F004C012F00A0E136E000E146E000E48
:100AB000156E000E166E49EC19F00F50C4EC1CF0C8
:100AC000000E026E020E016EA2EC1DF0000E196EF9
:100AD000100E056E270E066E000E076E000E086ED5
:100AE00043C001F044C002F045C003F046C004F02A
:100AF000C5EC16F001C00FF002C010F003C011F0F9
:100B000004C012F00A0E136E000E146E000E156E65
:100B1000000E166E49EC19F00F50C4EC1CF0000EDC
:100B2000026E020E016EA2EC1DF01DEC16F0000E1E
:100B3000026E020E016EA2EC1DF03B06D8A03C0630
:100B400046BEA7EF05F0A5EF05F047EF03F0000E56
:100B5000806E000EF2EC1BF0120E096E060E0A6E8D
:100B6000000E0C6E0A0E0B6EBFEC19F05EEC1CF062
:100B7000000E816E000E836E0B0E026EB80E016EBB
:100B800092EC1CF0B00E096E030E0A6E000E0C6E95
:100B9000400E0B6EBFEC19F01200A00E436E0F0E4C
:100BA000446E000E456E000E466E23EE90F010EE81
:100BB0001BF01F0EDBCFE3FFE806FCE21B0E096E05
:100BC000000E0A6E000E0C6E200E0B6EBFEC19F0BC
:100BD000070E026ED00E016E92EC1CF0E00E096E54
:100BE000010E0A6E000E0C6E200E0B6EBFEC19F09B
:100BF0000F0E096E000E85EC1DF00F0E3DEC1BF084
:100C0000010E826E5DEF08F03B503C10D8A40BEF54
:100C100006F00DEF06F019EF06F0FF0E4326FF0E6B
:100C20004422FF0E4522FF0E4622000E3C6E0C0EA3
:100C30003B6EB80E431809E10B0E441845104610E0
:100C4000D8A425EF06F027EF06F03EEF06F0320EAF
:100C5000F2EC1BF0000E826EC00E096E010E0A6EE1
:100C6000000E0C6E200E0B6EBFEC19F00A0E096E12
:100C7000000E85EC1DF00F0E3DEC1BF0D00E43185E
:100C800009E1070E441845104610D8A44AEF06F0B3
:100C90004CEF06F063EF06F0000EF2EC1BF0010ED5
:100CA000846EE00E096E020E0A6E000E0C6E200EAF
:100CB0000B6EBFEC19F00D0E096E000E85EC1DF0E9
:100CC0000F0E3DEC1BF0E80E431809E1030E44182B
:100CD00045104610D8A46FEF06F071EF06F088EFCC
:100CE00006F0000E846E320EF2EC1BF0C00E096EA0
:100CF000020E0A6E000E0C6E200E0B6EBFEC19F089
:100D00000A0E096E000E85EC1DF00F0E3DEC1BF077
:100D1000640E056E000E066E000E076E000E086E65
:100D200043C001F044C002F045C003F046C004F0E7
:100D3000C5EC16F001C00FF002C010F003C011F0B6
:100D400004C012F00A0E136E000E146E000E156E23
:100D5000000E166E49EC19F012BEBCEF06F01250F0
:100D60001110101007E1060E0F5CD8B0BAEF06F0B4
:100D7000BCEF06F0E5EF06F0030E196E0A0E056EE5
:100D8000000E066E000E076E000E086E43C001F0E6
:100D900044C002F045C003F046C004F0C5EC16F0B4
:100DA00001C00FF002C010F003C011F004C012F037
:100DB0000A0E136E000E146E000E156E000E166EE7
:100DC00049EC19F00F50C4EC1CF0000E026E020E3C
:100DD000016EA2EC1DF0640E056E000E066E000E94
:100DE000076E000E086E43C001F044C002F045C01B
:100DF00003F046C004F0C5EC16F001C00FF002C0CD
:100E000010F003C011F004C012F00A0E136E000EB1
:100E1000146E000E156E000E166E49EC19F012BE1F
:100E20001FEF07F012501110101007E1060E0F5CB3
:100E3000D8B01DEF07F01FEF07F048EF07F0020EE4
:100E4000196E640E056E000E066E000E076E000E23
:100E5000086E43C001F044C002F045C003F046C034
:100E600004F0C5EC16F001C00FF002C010F003C092
:100E700011F004C012F00A0E136E000E146E000E74
:100E8000156E000E166E49EC19F00F50C4EC1CF0F4
:100E9000640E056E000E066E000E076E000E086EE4
:100EA00043C001F044C002F045C003F046C004F066
:100EB000C5EC16F001C00FF002C010F003C011F035
:100EC00004C012F00A0E136E000E146E000E156EA2
:100ED000000E166E49EC19F012BE7AEF07F01250B0
:100EE0001110101009E1060E0F5CD8A07AEF07F080
:100EF0007CEF07F0EEEF07F0000E3F6E000E406E45
:100F0000000E416E000E426E3FC001F040C002F084
:100F100041C003F042C004F0000E056E000E066EE4
:100F2000800E076E400E086ECFEC17F0D8A09BEF36
:100F300007F09DEF07F09FEF07F0EEEF07F0000ED0
:100F40003E6E000E3D6EFF0E4326FF0E4422FF0E46
:100F50004522FF0E46223D4A3E2A3EBEB9EF07F02B
:100F60003E5009E10A0E3D5CD8A0B9EF07F0BBEF97
:100F700007F0A3EF07F03FC001F040C002F041C00E
:100F800003F042C004F0000E056E000E066E800EE7
:100F9000076E3F0E086E04EC0EF001C03FF002C079
:100FA00040F003C041F004C042F03FC001F040C037
:100FB00002F041C003F042C004F0000E056E000EC6
:100FC000066E800E076E400E086ECFEC17F0D8A0AC
:100FD000ECEF07F0EEEF07F09FEF07F0000E026E68
:100FE000020E016EA2EC1DF0010E196EE80E056EE8
:100FF000030E066E000E076E000E086E43C001F071
:1010000044C002F045C003F046C004F0C5EC16F041
:1010100001C00FF002C010F003C011F004C012F0C4
:101020000A0E136E000E146E000E156E000E166E74
:1010300049EC19F00F50C4EC1CF0000E026E020EC9
:10104000016EA2EC1DF0000E196E100E056E270E3B
:10105000066E000E076E000E086E43C001F044C01D
:1010600002F045C003F046C004F0C5EC16F001C024
:101070000FF002C010F003C011F004C012F00A0E0D
:10108000136E000E146E000E156E000E166E49ECF7
:1010900019F00F50C4EC1CF0000E026E020E016E2F
:1010A000A2EC1DF01DEC16F0000E026E020E016E99
:1010B000A2EC1DF03B06D8A03C0646BE64EF08F04B
:1010C00062EF08F004EF06F0000E806E000EF2EC06
:1010D0001BF0120E096E060E0A6E000E0C6E0A0E42
:1010E0000B6EBFEC19F05EEC1CF0000E816E000E72
:1010F000836E0B0E026EB80E016E92EC1CF0B00EF9
:10110000096E030E0A6E000E0C6E400E0B6EBFECE5
:1011100019F01200E00E436E2E0E446E000E456E66
:10112000000E466E22EE20F010EE1BF01F0EDBCFFD
:10113000E3FFE806FCE21B0E096E000E0A6E000ECD
:101140000C6E200E0B6EBFEC19F0070E026ED00E67
:10115000016E92EC1CF0E00E096E010E0A6E000E9C
:101160000C6E200E0B6EBFEC19F00F0E096E000E08
:1011700085EC1DF00F0E3DEC1BF0010E826E1AEF98
:101180000BF03B503C10D8A4C8EF08F0CAEF08F0B1
:10119000D6EF08F0FF0E4326FF0E4422FF0E452235
:1011A000FF0E4622000E3C6E0C0E3B6E280E4318BE
:1011B00009E1230E441845104610D8A4E2EF08F0C8
:1011C000E4EF08F0FBEF08F0640EF2EC1BF0000E09
:1011D000826EC00E096E010E0A6E000E0C6E200E9D
:1011E0000B6EBFEC19F00A0E096E000E85EC1DF0B7
:1011F0000F0E3DEC1BF0700E431809E1170E44185A
:1012000045104610D8A407EF09F009EF09F020EFC8
:1012100009F0000EF2EC1BF0010E846EE00E096E78
:10122000020E0A6E000E0C6E200E0B6EBFEC19F053
:101230000D0E096E000E85EC1DF00F0E3DEC1BF03F
:10124000B80E431809E10B0E441845104610D8A4F7
:101250002CEF09F02EEF09F045EF09F0000E846E37
:10126000640EF2EC1BF0C00E096E020E0A6E000E48
:101270000C6E200E0B6EBFEC19F00A0E096E000EFC
:1012800085EC1DF00F0E3DEC1BF0640E056E000E9C
:10129000066E000E076E000E086E43C001F044C0DB
:1012A00002F045C003F046C004F0C5EC16F001C0E2
:1012B0000FF002C010F003C011F004C012F00A0ECB
:1012C000136E000E146E000E156E000E166E49ECB5
:1012D00019F012BE79EF09F012501110101007E149
:1012E000060E0F5CD8B077EF09F079EF09F0A2EFA6
:1012F00009F0030E196E0A0E056E000E066E000E42
:10130000076E000E086E43C001F044C002F045C0F5
:1013100003F046C004F0C5EC16F001C00FF002C0A7
:1013200010F003C011F004C012F00A0E136E000E8C
:10133000146E000E156E000E166E49EC19F00F506B
:10134000C4EC1CF0000E026E020E016EA2EC1DF049
:10135000640E056E000E066E000E076E000E086E1F
:1013600043C001F044C002F045C003F046C004F0A1
:10137000C5EC16F001C00FF002C010F003C011F070
:1013800004C012F00A0E136E000E146E000E156EDD
:10139000000E166E49EC19F012BEDCEF09F0125087
:1013A0001110101007E1060E0F5CD8B0DAEF09F04B
:1013B000DCEF09F005EF0AF0020E196E640E056EFF
:1013C000000E066E000E076E000E086E43C001F0A0
:1013D00044C002F045C003F046C004F0C5EC16F06E
:1013E00001C00FF002C010F003C011F004C012F0F1
:1013F0000A0E136E000E146E000E156E000E166EA1
:1014000049EC19F00F50C4EC1CF0640E056E000E90
:10141000066E000E076E000E086E43C001F044C059
:1014200002F045C003F046C004F0C5EC16F001C060
:101430000FF002C010F003C011F004C012F00A0E49
:10144000136E000E146E000E156E000E166E49EC33
:1014500019F012BE37EF0AF012501110101009E106
:10146000060E0F5CD8A037EF0AF039EF0AF0ABEFA9
:101470000AF0000E3F6E000E406E000E416E000E30
:10148000426E3FC001F040C002F041C003F042C0D4
:1014900004F0000E056E000E066E800E076E400E04
:1014A000086ECFEC17F0D8A058EF0AF05AEF0AF008
:1014B0005CEF0AF0ABEF0AF0000E3E6E000E3D6EE0
:1014C000FF0E4326FF0E4422FF0E4522FF0E46224A
:1014D0003D4A3E2A3EBE76EF0AF03E5009E10A0E32
:1014E0003D5CD8A076EF0AF078EF0AF060EF0AF0E2
:1014F0003FC001F040C002F041C003F042C004F020
:10150000000E056E000E066E800E076E3F0E086E12
:1015100004EC0EF001C03FF002C040F003C041F007
:1015200004C042F03FC001F040C002F041C003F0EF
:1015300042C004F0000E056E000E066E800E076EAF
:10154000400E086ECFEC17F0D8A0A9EF0AF0ABEF71
:101550000AF05CEF0AF0000E026E020E016EA2ECC1
:101560001DF0010E196EE80E056E030E066E000EDC
:10157000076E000E086E43C001F044C002F045C083
:1015800003F046C004F0C5EC16F001C00FF002C035
:1015900010F003C011F004C012F00A0E136E000E1A
:1015A000146E000E156E000E166E49EC19F00F50F9
:1015B000C4EC1CF0000E026E020E016EA2EC1DF0D7
:1015C000000E196E100E056E270E066E000E076EC9
:1015D000000E086E43C001F044C002F045C003F0A5
:1015E00046C004F0C5EC16F001C00FF002C010F0C8
:1015F00003C011F004C012F00A0E136E000E146E38
:10160000000E156E000E166E49EC19F00F50C4EC6A
:101610001CF0000E026E020E016EA2EC1DF01DEC1D
:1016200016F0000E026E020E016EA2EC1DF03B06DB
:10163000D8A03C0646BE21EF0BF01FEF0BF0C1EF28
:1016400008F0000E806E000EF2EC1BF0120E096E18
:10165000060E0A6E000E0C6E0A0E0B6EBFEC19F031
:101660005EEC1CF0000E816E000E806E0B0E026EA2
:10167000B80E016E92EC1CF0B00E096E030E0A6EED
:10168000000E0C6E400E0B6EBFEC19F01200880EAF
:10169000536E130E546E000E556E000E566E23EEF2
:1016A00040F010EE1BF02F0EDBCFE3FFE806FCE26C
:1016B0001B0E096E000E0A6E000E0C6E200E0B6ED5
:1016C000BFEC19F0070E026ED00E016E92EC1CF00A
:1016D000E00E096E010E0A6E000E0C6E200E0B6EEF
:1016E000BFEC19F00F0E096E000E85EC1DF00F0E09
:1016F0003DEC1BF0010E826ED7EF0DF04B504C10FD
:10170000D8A485EF0BF087EF0BF093EF0BF0FF0EF3
:101710005326FF0E5422FF0E5522FF0E5622000EB6
:101720004C6E0C0E4B6EA00E531809E10F0E5418A0
:1017300055105610D8A49FEF0BF0A1EF0BF0B8EFA7
:101740000BF0190EF2EC1BF0000E826EC00E096E4B
:10175000010E0A6E000E0C6E200E0B6EBFEC19F01F
:101760000A0E096E000E85EC1DF00F0E3DEC1BF00D
:10177000D00E531809E1070E541855105610D8A46E
:10178000C4EF0BF0C6EF0BF0DDEF0BF0000EF2EC48
:101790001BF0010E846EE00E096E020E0A6E000E42
:1017A0000C6E200E0B6EBFEC19F00D0E096E000EC4
:1017B00085EC1DF00F0E3DEC1BF0E80E531809E10F
:1017C000030E541855105610D8A4E9EF0BF0EBEFA8
:1017D0000BF002EF0CF0000E846E190EF2EC1BF011
:1017E000C00E096E020E0A6E000E0C6E200E0B6EFD
:1017F000BFEC19F00A0E096E000E85EC1DF00F0EFD
:101800003DEC1BF0640E056E000E066E000E076EBA
:10181000000E086E53C001F054C002F055C003F032
:1018200056C004F0C5EC16F001C00FF002C010F075
:1018300003C011F004C012F00A0E136E000E146EF5
:10184000000E156E000E166E49EC19F012BE36EF42
:101850000CF012501110101007E1060E0F5CD8B0FA
:1018600034EF0CF036EF0CF05FEF0CF0030E196E56
:101870000A0E056E000E066E000E076E000E086E54
:1018800053C001F054C002F055C003F056C004F03C
:10189000C5EC16F001C00FF002C010F003C011F04B
:1018A00004C012F00A0E136E000E146E000E156EB8
:1018B000000E166E49EC19F00F50C4EC1CF0000E2F
:1018C000026E020E016EA2EC1DF0640E056E000E9B
:1018D000066E000E076E000E086E53C001F054C075
:1018E00002F055C003F056C004F0C5EC16F001C07C
:1018F0000FF002C010F003C011F004C012F00A0E85
:10190000136E000E146E000E156E000E166E49EC6E
:1019100019F012BE99EF0CF012501110101007E1DF
:10192000060E0F5CD8B097EF0CF099EF0CF0C2EFF9
:101930000CF0020E196E640E056E000E066E000E9F
:10194000076E000E086E53C001F054C002F055C07F
:1019500003F056C004F0C5EC16F001C00FF002C051
:1019600010F003C011F004C012F00A0E136E000E46
:10197000146E000E156E000E166E49EC19F00F5025
:10198000C4EC1CF0640E056E000E066E000E076EB1
:10199000000E086E53C001F054C002F055C003F0B1
:1019A00056C004F0C5EC16F001C00FF002C010F0F4
:1019B00003C011F004C012F00A0E136E000E146E74
:1019C000000E156E000E166E49EC19F012BEF4EF03
:1019D0000CF012501110101009E1060E0F5CD8A087
:1019E000F4EF0CF0F6EF0CF068EF0DF0000E4F6E18
:1019F000000E506E000E516E000E526E4FC001F080
:101A000050C002F051C003F052C004F0000E056E49
:101A1000000E066E800E076E400E086ECFEC17F0BB
:101A2000D8A015EF0DF017EF0DF019EF0DF068EFDE
:101A30000DF0000E4E6E000E4D6EFF0E5326FF0E83
:101A40005422FF0E5522FF0E56224D4A4E2A4EBEFC
:101A500033EF0DF04E5009E10A0E4D5CD8A033EF84
:101A60000DF035EF0DF01DEF0DF04FC001F050C03F
:101A700002F051C003F052C004F0000E056E000EDB
:101A8000066E800E076E3F0E086E04EC0EF001C06D
:101A90004FF002C050F003C051F004C052F04FC0EC
:101AA00001F050C002F051C003F052C004F0000E2B
:101AB000056E000E066E800E076E400E086ECFECAF
:101AC00017F0D8A066EF0DF068EF0DF019EF0DF0EC
:101AD000000E026E020E016EA2EC1DF0010E196ED8
:101AE000E80E056E030E066E000E076E000E086E01
:101AF00053C001F054C002F055C003F056C004F0CA
:101B0000C5EC16F001C00FF002C010F003C011F0D8
:101B100004C012F00A0E136E000E146E000E156E45
:101B2000000E166E49EC19F00F50C4EC1CF0000EBC
:101B3000026E020E016EA2EC1DF0000E196E100E68
:101B4000056E270E066E000E076E000E086E53C05F
:101B500001F054C002F055C003F056C004F0C5ECCB
:101B600016F001C00FF002C010F003C011F004C065
:101B700012F00A0E136E000E146E000E156E000E9B
:101B8000166E49EC19F00F50C4EC1CF0000E026EFA
:101B9000020E016EA2EC1DF01DEC16F0000E026E9E
:101BA000020E016EA2EC1DF04B06D8A04C0656BEEC
:101BB000DEEF0DF0DCEF0DF07EEF0BF0000E806E2F
:101BC000000EF2EC1BF0120E096E060E0A6E000EED
:101BD0000C6E0A0E0B6EBFEC19F05EEC1CF0000EE2
:101BE000816E000E836E0B0E026EB80E016E92ECCB
:101BF0001CF0B00E096E030E0A6E000E0C6E400E45
:101C00000B6EBFEC19F012000450800B0D6E0450E7
:101C100004240F6E03AE0FEF0EF011EF0EF012EF73
:101C20000EF00F800F50D8B418EF0EF01AEF0EF030
:101C30002FEF0EF00F28D8A420EF0EF022EF0EF0B9
:101C40002AEF0EF0000E016E000E026E000E036E03
:101C5000000E046E038E000E046E37EF0EF0000EC1
:101C6000016E000E026E000E036E000E046E085030
:101C7000800B0E6E0D500E18D8B441EF0EF043EFEE
:101C80000EF044EF0EF00D8C085008240E6E07AED7
:101C90004CEF0EF04EEF0EF04FEF0EF00E800E50A8
:101CA000D8B455EF0EF057EF0EF06CEF0EF00E2893
:101CB000D8A45DEF0EF05FEF0EF067EF0EF0000EB0
:101CC000056E000E066E000E076E000E086E078E83
:101CD000000E086E74EF0EF0000E056E000E066E1C
:101CE000000E076E000E086E0F500E5CD8B07BEF32
:101CF0000EF07DEF0EF0A4EF0EF00DAC82EF0EF0C3
:101D000084EF0EF086EF0EF0800E0D1A0FC010F06B
:101D10000EC00FF010C00EF001C010F005C001F0B1
:101D200010C005F002C010F006C002F010C006F0AE
:101D300003C010F007C003F010C007F004C010F09B
:101D400008C004F010C008F0000E106E0F500EC056
:101D500009F00A6A095E000E0A5A0ABEB9EF0EF0CF
:101D60000A5009E11A0E095CD8A0B9EF0EF0BBEFDA
:101D70000EF0F2EF0EF00150021003100410D8A480
:101D8000C4EF0EF0C7EF0EF0010EC8EF0EF0000E1C
:101D9000106E000E016E000E026E000E036E000E3D
:101DA000046E0EC00FF0FBEF0EF010A0DAEF0EF095
:101DB000DCEF0EF0E2EF0EF0D89010300109106E5B
:101DC000E4EF0EF0D890103201A0E9EF0EF0EBEF47
:101DD0000EF0ECEF0EF0108E0434043203320232B7
:101DE00001320F2A0E500F5CD8A0F9EF0EF0FBEF76
:101DF0000EF0D5EF0EF00DBC00EF0FF002EF0FF07C
:101E000042EF0FF00F50D8A408EF0FF00AEF0FF0D9
:101E100014EF0FF0000E016E000E026E000E036E46
:101E2000000E046E63EF10F00550012606500222EA
:101E3000075003220850042204A021EF0FF023EFE3
:101E40000FF0CFEF0FF010A028EF0FF02AEF0FF0F8
:101E500030EF0FF0D89010300109106E32EF0FF014
:101E6000D890103201A037EF0FF039EF0FF03AEFB2
:101E70000FF0108E043404320332023201320F2A82
:101E8000CFEF0FF00550015C065002580750035881
:101E90000450800A096E0850800A0958D8B053EFE0
:101EA0000FF055EF0FF080EF0FF00150055C096E59
:101EB000025006580A6E035007580B6E045008581B
:101EC0000C6EFF0E0924016EFF0E0A20026EFF0E3B
:101ED0000B20036EFF0E0C20046E800E0D1A106C8A
:101EE0001050D8A476EF0FF078EF0FF088EF0FF0D6
:101EF000010E0126000E02220322042288EF0FF0B9
:101F00000550015E0650025A0750035A0850045A01
:101F10000150021003100410D8A491EF0FF093EFBA
:101F20000FF0C8EF0FF01050D8A499EF0FF09BEF0F
:101F30000FF0C8EF0FF0000E016E000E026E000EE3
:101F4000036E000E046E63EF10F0D8900136023677
:101F50000336043610AEAFEF0FF0B1EF0FF0B2EF73
:101F60000FF0018010A0B7EF0FF0B9EF0FF0BDEF49
:101F70000FF0D8801036BFEF0FF0D89010360F500A
:101F8000D8B4C5EF0FF0C7EF0FF0C8EF0FF00F0692
:101F900003AECDEF0FF0CFEF0FF0A5EF0FF0000E77
:101FA0000E6E10AED6EF0FF0D8EF0FF0F0EF0FF08F
:101FB00010C009F07F0E0916D8B4E1EF0FF0E3EF7F
:101FC0000FF0E7EF0FF0010E0E6EF0EF0FF001A033
:101FD000ECEF0FF0EEEF0FF0F0EF0FF0E3EF0FF09C
:101FE0000E50D8B4F6EF0FF0F8EF0FF023EF10F02B
:101FF000010E0126000E02220322042204A003EF98
:1020000010F005EF10F023EF10F001C009F002C04E
:102010000AF003C00BF004C00CF00C340C320B328D
:102020000A32093209C001F00AC002F00BC003F005
:102030000CC004F00F28D8B420EF10F022EF10F0FD
:1020400023EF10F00F2A0F28D8B429EF10F02BEF50
:1020500010F033EF10F00F50D8A431EF10F033EF41
:1020600010F045EF10F0000E016E000E026E000E33
:10207000036E000E046E0F50D8A441EF10F043EF32
:1020800010F045EF10F0000E0D6E0FA04AEF10F0AB
:102090004CEF10F04FEF10F0038E50EF10F0039E56
:1020A000D8900F30046E0DAE58EF10F05AEF10F0CC
:1020B0005BEF10F0048E01C001F002C002F003C01B
:1020C00003F004C004F0120050EF12F01F50201073
:1020D000D8A46DEF10F06FEF10F07BEF10F0FF0E53
:1020E0001B26FF0E1C22FF0E1D22FF0E1E22000EBD
:1020F000206E0C0E1F6E640E056E000E066E000E36
:10210000076E000E086E1BC001F01CC002F01DC05F
:1021100003F01EC004F0C5EC16F001C00FF002C0C1
:1021200010F003C011F004C012F00A0E136E000E7E
:10213000146E000E156E000E166E49EC19F012BEEC
:10214000AFEF10F012501110101007E1060E0F5CE7
:10215000D8B0ADEF10F0AFEF10F0D8EF10F0030EE5
:10216000196E0A0E056E000E066E000E076E000E4A
:10217000086E1BC001F01CC002F01DC003F01EC0A1
:1021800004F0C5EC16F001C00FF002C010F003C05F
:1021900011F004C012F00A0E136E000E146E000E41
:1021A000156E000E166E49EC19F00F50C4EC1CF0C1
:1021B000000E026E020E016EA2EC1DF0640E056EA2
:1021C000000E066E000E076E000E086E1BC001F0BA
:1021D0001CC002F01DC003F01EC004F0C5EC16F0D8
:1021E00001C00FF002C010F003C011F004C012F0E3
:1021F0000A0E136E000E146E000E156E000E166E93
:1022000049EC19F012BE12EF11F01250111010101B
:1022100007E1060E0F5CD8B010EF11F012EF11F0CD
:102220003BEF11F0020E196E640E056E000E066E85
:10223000000E076E000E086E1BC001F01CC002F0FD
:102240001DC003F01EC004F0C5EC16F001C00FF075
:1022500002C010F003C011F004C012F00A0E136E99
:10226000000E146E000E156E000E166E49EC19F07D
:102270000F50C4EC1CF0640E056E000E066E000ECE
:10228000076E000E086E1BC001F01CC002F01DC0DE
:1022900003F01EC004F0C5EC16F001C00FF002C040
:1022A00010F003C011F004C012F00A0E136E000EFD
:1022B000146E000E156E000E166E49EC19F012BE6B
:1022C0006DEF11F012501110101009E1060E0F5CA5
:1022D000D8A06DEF11F06FEF11F0E1EF11F0000EEB
:1022E000236E000E246E000E256E000E266E23C097
:1022F00001F024C002F025C003F026C004F0000E57
:10230000056E000E066E800E076E400E086ECFEC56
:1023100017F0D8A08EEF11F090EF11F092EF11F0BE
:10232000E1EF11F0000E226E000E216EFF0E1B2653
:10233000FF0E1C22FF0E1D22FF0E1E22214A222A02
:1023400022BEACEF11F0225009E10A0E215CD8A0A8
:10235000ACEF11F0AEEF11F096EF11F023C001F0E9
:1023600024C002F025C003F026C004F0000E056E64
:10237000000E066E800E076E3F0E086E04EC0EF027
:1023800001C023F002C024F003C025F004C026F0F1
:1023900023C001F024C002F025C003F026C004F0E1
:1023A000000E056E000E066E800E076E400E086E63
:1023B000CFEC17F0D8A0DFEF11F0E1EF11F092EFC2
:1023C00011F0000E026E020E016EA2EC1DF0010E65
:1023D000196EE80E056E030E066E000E076E000EF7
:1023E000086E1BC001F01CC002F01DC003F01EC02F
:1023F00004F0C5EC16F001C00FF002C010F003C0ED
:1024000011F004C012F00A0E136E000E146E000ECE
:10241000156E000E166E49EC19F00F50C4EC1CF04E
:10242000000E026E020E016EA2EC1DF0000E196E7F
:10243000100E056E270E066E000E076E000E086E5B
:102440001BC001F01CC002F01DC003F01EC004F050
:10245000C5EC16F001C00FF002C010F003C011F07F
:1024600004C012F00A0E136E000E146E000E156EEC
:10247000000E166E49EC19F00F50C4EC1CF0000E63
:10248000026E020E016EA2EC1DF01DEC16F0000EA5
:10249000026E020E016EA2EC1DF01F06D8A02006EF
:1024A0001EBE57EF12F055EF12F066EF10F012005B
:1024B00002BE66EF12F0025007E1080E015CD8B0D0
:1024C00064EF12F066EF12F090EF12F00350041078
:1024D000D8B46DEF12F06FEF12F07FEF12F001C081
:1024E00005F0010E066E052A78EF12F0D890063638
:1024F000052E76EF12F0065092127EEF13F001C017
:1025000005F0010E066E052A88EF12F0D890063607
:10251000052E86EF12F00650FF0A92167EEF13F09A
:1025200002BE9EEF12F0025007E1100E015CD8B01F
:102530009CEF12F09EEF12F0CCEF12F0035004105B
:10254000D8B4A5EF12F0A7EF12F0B9EF12F001C066
:1025500005F0F80E0526010E066E052AB2EF12F000
:10256000D8900636052EB0EF12F0065093127EEF8B
:1025700013F001C005F0F80E0526010E066E052ABF
:10258000C4EF12F0D8900636052EC2EF12F00650B6
:10259000FF0A93167EEF13F002BEDAEF12F002503C
:1025A00007E1180E015CD8B0D8EF12F0DAEF12F0A4
:1025B00008EF13F003500410D8B4E1EF12F0E3EF8A
:1025C00012F0F5EF12F001C005F0F00E0526010E35
:1025D000066E052AEEEF12F0D8900636052EECEFC7
:1025E00012F0065094127EEF13F001C005F0F00EC9
:1025F0000526010E066E052A00EF13F0D890063668
:10260000052EFEEF12F00650FF0A94167EEF13F02F
:1026100002BE16EF13F0025007E1200E015CD8B0A5
:1026200014EF13F016EF13F044EF13F003500410FF
:10263000D8B41DEF13F01FEF13F031EF13F001C00A
:1026400005F0E80E0526010E066E052A2AEF13F0A6
:10265000D8900636052E28EF13F0065095127EEF1F
:1026600013F001C005F0E80E0526010E066E052ADE
:102670003CEF13F0D8900636052E3AEF13F00650D3
:10268000FF0A95167EEF13F002BE52EF13F00250D0
:1026900007E1280E015CD8B050EF13F052EF13F0B1
:1026A0007EEF13F003500410D8B459EF13F05BEF32
:1026B00013F06DEF13F001C005F0E00E0526010EDA
:1026C000066E052A66EF13F0D8900636052E64EFE5
:1026D00013F0065096127EEF13F001C005F0E00EE5
:1026E0000526010E066E052A78EF13F0D8900636FF
:1026F000052E76EF13F00650FF0A9616120002BE62
:102700008DEF13F0025007E1080E015CD8B08BEF9B
:1027100013F08DEF13F0B7EF13F003500410D8B49B
:1027200094EF13F096EF13F0A6EF13F001C005F04D
:10273000010E066E052A9FEF13F0D8900636052E7F
:102740009DEF13F006508012A5EF14F001C005F0C4
:10275000010E066E052AAFEF13F0D8900636052E4F
:10276000ADEF13F00650FF0A8016A5EF14F002BE7D
:10277000C5EF13F0025007E1100E015CD8B0C3EFB3
:1027800013F0C5EF13F0F3EF13F0F80E0126FF0E70
:10279000022203500410D8B4D0EF13F0D2EF13F09C
:1027A000E2EF13F001C005F0010E066E052ADBEF23
:1027B00013F0D8900636052ED9EF13F0065081128B
:1027C000A5EF14F001C005F0010E066E052AEBEF2F
:1027D00013F0D8900636052EE9EF13F00650FF0AE5
:1027E0008116A5EF14F002BE01EF14F0025007E1CC
:1027F000180E015CD8B0FFEF13F001EF14F02FEFCB
:1028000014F0F00E0126FF0E022203500410D8B47B
:102810000CEF14F00EEF14F01EEF14F001C005F0F1
:10282000010E066E052A17EF14F0D8900636052E15
:1028300015EF14F006508212A5EF14F001C005F058
:10284000010E066E052A27EF14F0D8900636052EE5
:1028500025EF14F00650FF0A8216A5EF14F002BE11
:102860003DEF14F0025007E1200E015CD8B03BEFC1
:1028700014F03DEF14F06BEF14F0E80E0126FF0E9C
:10288000022203500410D8B448EF14F04AEF14F0B9
:102890005AEF14F001C005F0010E066E052A53EF41
:1028A00014F0D8900636052E51EF14F0065083121E
:1028B000A5EF14F001C005F0010E066E052A63EFC6
:1028C00014F0D8900636052E61EF14F00650FF0A7A
:1028D0008316A5EF14F002BE79EF14F0025007E161
:1028E000280E015CD8B077EF14F079EF14F0A5EF63
:1028F00014F0E00E0126FF0E022203500410D8B49B
:1029000084EF14F086EF14F096EF14F001C005F098
:10291000010E066E052A8FEF14F0D8900636052EAC
:102920008DEF14F006508412A5EF14F001C005F0ED
:10293000010E066E052A9FEF14F0D8900636052E7C
:102940009DEF14F00650FF0A8416120083CF06F0A4
:102950000F0E9512000E0A6EF80E93160AC001F0C3
:10296000010E026E012AB7EF14F0D8900236012E44
:10297000B5EF14F002509312070E81120AC001F055
:10298000010E026E012AC7EF14F0D8900236012E14
:10299000C5EF14F00250FF0A8116000E086E000EFB
:1029A000076E074A082A08BEDFEF14F0085009E155
:1029B0000A0E075CD8A0DFEF14F0E1EF14F0D1EFBE
:1029C00014F0000E096E09C001F0010E026E012A1A
:1029D000ECEF14F0D8900236012EEAEF14F002501A
:1029E00083140009D8A4F7EF14F0F9EF14F011EFF5
:1029F00015F00A50040DF3500924016E010E026E09
:102A0000000E036E012A08EF15F0D8900236033647
:102A1000012E05EF15F002505B1203505C122BEFF4
:102A200015F00A50040DF3500924016E010E026ED8
:102A3000000E036E012A20EF15F0D89002360336FF
:102A4000012E1DEF15F0021C046E031C056E0450D0
:102A50005B1605505C16092A030E096432EF15F067
:102A600034EF15F0E3EF14F00A2A020E0A643BEF8C
:102A700015F03DEF15F0ACEF14F05B50591807E17D
:102A80005C505A18D8A447EF15F049EF15F04CEFF9
:102A900015F0640652EF15F00A0E646E5BC059F033
:102AA0005CC05AF06450D8A458EF15F05AEF15F0F6
:102AB0005EEF15F059C05DF05AC05EF006C083FFAE
:102AC000000E956E120022EE80F011EE00F01F0E47
:102AD000DBCFE3FFE806FCE222EE60F011EE20F02F
:102AE0001F0EDBCFE3FFE806FCE222EE40F011EE22
:102AF00040F01F0EDBCFE3FFE806FCE2000E096E9C
:102B0000010E0A6E000E0C6E200E0B6EBFEC19F05B
:102B1000070E026ED00E016E92EC1CF0200E096EB4
:102B2000010E0A6E000E0C6E200E0B6EBFEC19F03B
:102B3000090E096E010E85EC1DF00F0E3DEC1BF029
:102B4000640EF2EC1BF0580E1B6E020E1C6E000E93
:102B50001D6E000E1E6E64EC10F0400E096E010E2C
:102B60000A6E000E0C6E200E0B6EBFEC19F00B0EF1
:102B7000096E000E85EC1DF00F0E3DEC1BF0000EF3
:102B8000F2EC1BF08094010E3DEC1BF00C0E3DECC2
:102B90001BF0000E026E640E016E92EC1CF0270E0C
:102BA000106E100E0F6ECDEC1DF0320E28EC1CF0E6
:102BB000948283680B0E026EB80E016E92EC1CF0CC
:102BC0009492000E836E030E026EE80E016E92EC7C
:102BD0001CF09482270E106E100E0F6ECDEC1DF0BF
:102BE00083680B0E026EB80E016E92EC1CF094928C
:102BF000000E836E030E026EE80E016E92EC1CF066
:102C00009482270E106E100E0F6ECDEC1DF08368AF
:102C10000B0E026EB80E016E92EC1CF09492000E38
:102C200028EC1CF0000E836E000E026E640E016E26
:102C300092EC1CF04BEC17F01200000E956E000E9B
:102C4000026E020E016E000E046E000E036E7FEC2B
:102C500013F0000E026E030E016E000E046E000EE5
:102C6000036E7FEC13F0000E026E040E016E000E78
:102C7000046E000E036E7FEC13F0000E026E050E64
:102C8000016E000E046E000E036E7FEC13F0000E5A
:102C9000836EA7EF16F0010E6224F66EF76A060E39
:102CA000F7220800F5CF83FF000E026E020E016EC0
:102CB000000E046E010E036E7FEC13F0010E636EC6
:102CC000C4EF16F0010E6124F66EF76A060EF722C5
:102CD0000800F5CF83FF000E026E030E016E000E9A
:102CE000046E010E036E7FEC13F0020E636EC4EFF0
:102CF00016F0010E6024F66EF76A060EF722080041
:102D0000F5CF83FF000E026E040E016E000E046EFE
:102D1000010E036E7FEC13F0030E636EC4EF16F02A
:102D2000010E5F24F66EF76A060EF7220800F5CF53
:102D300083FF000E026E050E016E000E046E010E82
:102D4000036E7FEC13F0000E636EC4EF16F0635059
:102D5000076E086A0850000AD8B4B1EF16F0A3EF66
:102D600016F00750000AD8B44BEF16F0010AD8B499
:102D700062EF16F0030AD8B479EF16F0010AD8B45E
:102D800090EF16F0A3EF16F01200000E0A6E08BEC8
:102D9000CEEF16F0CCEF16F0D8EF16F0081E071E97
:102DA000061E056C000E062207220822010E0A6E7E
:102DB00004BEDFEF16F0DDEF16F0E9EF16F0041EAB
:102DC000031E021E016C000E022203220422010EC9
:102DD0000A1A000E0B6E000E0C6E000E0D6E000E29
:102DE0000E6E0550061007100810D8B4FAEF16F052
:102DF000FCEF16F032EF17F0010E096E06EF17F038
:102E0000D8900536063607360836092A08AE0BEF85
:102E100017F00DEF17F000EF17F0D8900B360C36C7
:102E20000D360E360550015C065002580750035807
:102E300008500458D8A01FEF17F021EF17F02AEF21
:102E400017F00550015E0650025A0750035A085009
:102E5000045A0B80D8900832073206320532092E08
:102E60000DEF17F00A50D8B438EF17F03AEF17F01B
:102E700042EF17F00E1E0D1E0C1E0B6C000E0C22E6
:102E80000D220E220BC001F00CC002F00DC003F0A9
:102E90000EC004F01200000E0001E16F000EE06FA2
:102EA00022EEA0F010EEC0F01F0EDBCFE3FFE8062D
:102EB000FCE223EE00F010EE80F03F0EDBCFE3FFEC
:102EC000E806FCE2C00E096E000E0A6E000E0C6EE3
:102ED000200E0B6EBFEC19F00B0E026EB80E016ED9
:102EE00092EC1CF0800E096E000E0A6E000E0C6E45
:102EF000400E0B6EBFEC19F0A6EC14F008EC1EF0BF
:102F00000001E051011809E1E1510218D8B48BEF3A
:102F100017F08DEF17F07CEF17F008EC1EF001C0F2
:102F2000E0F002C0E1F00001E0A799EF17F09BEF9D
:102F300017F0A2EF17F0010E3DEC1BF08AEC08F041
:102F40007CEF17F0E0AFA7EF17F0A9EF17F0B0EFA5
:102F500017F0010E3DEC1BF010EC03F07CEF17F0C6
:102F6000E1A7B5EF17F0B7EF17F0BEEF17F0010EBE
:102F70003DEC1BF0CDEC05F07CEF17F0E0A5C3EFC6
:102F800017F0C5EF17F0CCEF17F0010E3DEC1BF07A
:102F900047EC0BF07CEF17F07CEF17F01200000EFF
:102FA0000114096E000E02140A6E800E03140B6EDB
:102FB0007F0E04140C6E09500A100B100C10D8A4CC
:102FC000E4EF17F0E6EF17F0EEEF17F0000E016EEA
:102FD000000E026E000E036E000E046E000E05144D
:102FE000096E000E06140A6E800E07140B6E7F0E1B
:102FF00008140C6E09500A100B100C10D8A403EF23
:1030000018F005EF18F00DEF18F0000E056E000E29
:10301000066E000E076E000E086E04AE12EF18F07A
:1030200014EF18F01DEF18F0016C021ED8B0022A40
:10303000031ED8B0032A800E045608AE22EF18F003
:1030400024EF18F02DEF18F0056C061ED8B0062AF4
:10305000071ED8B0072A800E0856000E011A000E6F
:10306000021A000E031A800E041A000E051A000E32
:10307000061A000E071A800E081A0550015C065049
:1030800002580750035808500458D8B04AEF18F0B7
:103090004CEF18F04FEF18F0D89050EF18F0D880A0
:1030A0001200496E696369616E646F2020202020E0
:1030B00020204C61766167656D20646961416469B7
:1030C0006100496E696369616E646F202020202071
:1030D00020204C61766167656D2070657361646165
:1030E000000046696E616C697A616E646F00000071
:1030F00000000000000000000000000000000000D0
:1031000000005265616C697A616E646F2041716381
:1031100075612D53707261792E2E2E000000000013
:103120000000496E696369616E646F202020202071
:1031300020205072652D4C61766167656D0000003E
:1031400000004573636F6C686120756D61202020FD
:1031500020206F7063616F206465206C6176616709
:10316000656D536563616E646F2E2E2E0000000046
:10317000000000000000000000000000000000004F
:103180000000456E78616775616E646F2E2E2E00AB
:10319000000000000000000000000000000000002F
:1031A0000000312D506573616461202020202020B3
:1031B0002020322D44696120612064696120202033
:1031C0002020332D5261706964612020202020204E
:1031D0002020342D45636F6E6F6D696361000000C0
:1031E0000000496E696369616E646F2020202020B1
:1031F00020204C61766167656D2065636F6E6F6D31
:103200006963610000000000000000000000000091
:103210000000496E696369616C697A616E646F2E42
:103220002E2E4C6176612D6C6F756361730000000A
:103230000000496E696369616E646F202020202060
:1032400020204C61766167656D20726170696461F0
:10325000000050617261206F75747261202020201F
:1032600020206C61766167656D2020202020202061
:1032700020207072657373696F6E652052455345E7
:1032800054000000000000000000000000000000EA
:103290000000000E186E12BE52EF19F050EF19F038
:1032A0005CEF19F0121E111E101E0F6C000E102282
:1032B00011221222010E186E16BE63EF19F061EF93
:1032C00019F06BEF19F0161E151E141E136C000E6C
:1032D0001422152216221350141015101610D8B4EB
:1032E00074EF19F076EF19F0A6EF19F0010E176ED2
:1032F00080EF19F0D8901336143615361636172A83
:1033000016AE85EF19F087EF19F07AEF19F0135028
:103310000F5C145010581550115816501258D8A060
:1033200094EF19F096EF19F09EEF19F013500F5E1D
:103330001450105A1550115A1650125AD89016326D
:10334000153214321332172E87EF19F01850D8B4F3
:10335000ACEF19F0AEEF19F0B6EF19F0121E111E16
:10336000101E0F6C000E1022112212220FC00FF03F
:1033700010C010F011C011F012C012F01200010EB6
:103380003DEC1BF0800E3DEC1BF0000E106E000EAD
:103390000F6E10EF1AF0100E0F181010D8A4D3EF04
:1033A00019F0D5EF19F0DAEF19F0C00E3DEC1BF073
:1033B000F6EF19F0200E0F181010D8A4E2EF19F054
:1033C000E4EF19F0E9EF19F0900E3DEC1BF0F6EF89
:1033D00019F0300E0F181010D8A4F1EF19F0F3EF18
:1033E00019F0F6EF19F0D00E3DEC1BF00F50092448
:1033F0000D6E10500A200E6E0DC0F6FF0EC0F7FFC6
:10340000F86A050EF76403D00800F55005D0F6CF32
:10341000E9FFF7CFEAFFEF501BEC1DF00F4A102A2F
:103420000B500F5C1050800A0D6E0C50800A0D5826
:10343000D8A01DEF1AF01FEF1AF0CBEF19F0120011
:10344000CA0EF66E3A0EF76E000EF86E04EE00F03D
:1034500010EE40F00900F5CFEEFFE550E150FAE143
:10346000A20EF66E310EF76E000EF86E03EE00F04F
:1034700010EEF0F00900F5CFEEFFE550E150FAE173
:10348000A20EF66E300EF76E000EF86E02EE00F031
:1034900011EE00F00900F5CFEEFFE550E150FAE142
:1034A000E250F8E18A0EF66E3A0EF76E000EF86EF4
:1034B00001EEC0F010EE40F00900F5CFEEFFE55050
:1034C000E150FAE100EE59F00C0EEE6AE806FDE17B
:1034D000000EF86E0001B6EF1AF0000E956E000EA9
:1034E000936E000E836E000E816E010E836E010ED0
:1034F000026EF40E016E92EC1CF0030E836E010E50
:10350000026EF40E016E92EC1CF0070E836E010E3B
:10351000026EF40E016E92EC1CF00F0E836E010E23
:10352000026EF40E016E92EC1CF01F0E836E010E03
:10353000026EF40E016E92EC1CF03F0E836E010ED3
:10354000026EF40E016E92EC1CF07F0E836E010E83
:10355000026EF40E016E92EC1CF083688168030E1B
:10356000026EE80E016E92EC1CF0120023EE70F079
:1035700011EEA0F01F0EDBCFE3FFE806FCE224EE25
:1035800000F011EE60F03F0EDBCFE3FFE806FCE257
:10359000030E936E000E946E000E956E000E966EE6
:1035A0006DEC1AF07CEC1BF00DEC1EF0F0EC1CF056
:1035B000E0EC1DF0A00E096E010E0A6E000E0C6EFE
:1035C000200E0B6EBFEC19F0070E026ED00E016ECE
:1035D00092EC1CF0600E096E010E0A6E000E0C6E6D
:1035E000400E0B6EBFEC19F0070E026ED00E016E8E
:1035F00092EC1CF0FEEC1AF000EF00F0000E586E9A
:10360000000E576E33EF1BF0A6EC14F008EC1EF022
:103610005750011809E158500218D8B412EF1BF0A6
:1036200014EF1BF033EF1BF008EC1EF001C057F055
:1036300002C058F057A01FEF1BF021EF1BF028EF3E
:103640001BF0010E3DEC1BF063EC15F033EF1BF0AB
:1036500058A02DEF1BF02FEF1BF033EF1BF04BECBE
:1036600017F033EF1BF057505810D8B43AEF1BF057
:103670003CEF1BF004EF1BF01200086E83CF07F045
:10368000000E956E000E026E220E016E000E046E8C
:10369000000E036E7FEC13F008C083FF000E026E75
:1036A000210E016E000E046E010E036E7FEC13F00E
:1036B000000E026E210E016E000E046E000E036EEF
:1036C0007FEC13F007C083FF020E0818D8B46BEF2D
:1036D0001BF06DEF1BF075EF1BF00804D8A473EF1F
:1036E0001BF075EF1BF079EF1BF0EEEC1DF07BEF9C
:1036F0001BF0FCEC1DF01200000E026E220E016E9B
:10370000000E046E000E036E58EC12F0000E026EF6
:10371000210E016E000E046E000E036E58EC12F0C6
:10372000000E956EEEEC1DF0EEEC1DF0EEEC1DF0D3
:10373000EEEC1DF0EEEC1DF0380E3DEC1BF0EEEC67
:103740001DF0EEEC1DF0380E3DEC1BF0EEEC1DF024
:10375000380E3DEC1BF0380E3DEC1BF0060E3DEC38
:103760001BF00C0E3DEC1BF0010E3DEC1BF01200AB
:10377000000E066E000E056E03500410D8B4C3EFA1
:103780001BF0C5EF1BF0EDEF1BF0010E076ECDEF48
:103790001BF0D89003360436072A04AED2EF1BF094
:1037A000D4EF1BF0C9EF1BF0D89005360636035056
:1037B000015C04500258D8A0E0EF1BF0E2EF1BF0D0
:1037C000E7EF1BF00350015E0450025A0580D890C9
:1037D00004320332072ED4EF1BF005C001F006C0FF
:1037E00002F012000A6E010ECB24016E026A000E76
:1037F00002220AC003F0046ABAEC1DF001C00BF00B
:1038000002C00CF00BC001F00CC002F0000E046E00
:10381000190E036EB8EC1BF001C00BF002C00CF0E7
:10382000FF0E0B16030E0C160BC008F00CC009F0AF
:10383000D89009320832D890093208320850BE6E4A
:103840000BC008F0030E08160838F00BBD1212006A
:103850000A6E010ECB24016E026A000E02220AC01B
:1038600003F0046ABAEC1DF001C00BF002C00CF0CA
:103870000BC001F00CC002F0000E046E190E036EB6
:10388000B8EC1BF001C00BF002C00CF0FF0E0B16E1
:10389000030E0C160BC008F00CC009F0D8900932CA
:1038A0000832D890093208320850BB6E0BC008F0BD
:1038B000030E08160838F00BBA121200000E126E32
:1038C000000E116E11B067EF1CF069EF1CF07CEF79
:1038D0001CF0270E106E100E0F6ECDEC1DF0320E88
:1038E00028EC1CF094828368010E026EF40E016EC7
:1038F00092EC1CF081EF1CF09492000E836E74EF3A
:103900001CF0114A122A12BE8FEF1CF0125009E16E
:10391000100E115CD8A08FEF1CF091EF1CF062EF3D
:103920001CF01200000E046E000E036EB8EF1CF0C7
:10393000000E056E280E0564A0EF1CF0A2EF1CF02F
:10394000A4EF1CF0B6EF1CF0000E066E020E06642B
:10395000ACEF1CF0AEEF1CF0B0EF1CF0B3EF1CF0BE
:10396000062AA6EF1CF0052A9AEF1CF0034A042A47
:103970000150035C02500458D8A0C1EF1CF0C3EF03
:103980001CF098EF1CF012001A6E1950D8A4CBEF5F
:103990001CF0CDEF1CF0CFEF1CF01AC062F0190440
:1039A000D8A4D5EF1CF0D7EF1CF0D9EF1CF01AC04B
:1039B00061F0020E1918D8A4E0EF1CF0E2EF1CF041
:1039C000E4EF1CF01AC060F0030E1918D8A4EBEF56
:1039D0001CF0EDEF1CF0EFEF1CF01AC05FF01200CE
:1039E000000E026E020E016E000E046E000E036EDB
:1039F00058EC12F0000E026E030E016E000E046E03
:103A0000000E036E58EC12F0000E026E040E016EF2
:103A1000000E046E000E036E58EC12F0000E026EE3
:103A2000050E016E000E046E000E036E58EC12F0CF
:103A3000000E956E1200076E83CF08F0000E956E93
:103A4000000E026E220E016E000E046E010E036E59
:103A50007FEC13F007C083FF000E026E210E016E93
:103A6000000E046E010E036E7FEC13F0000E026E6A
:103A7000210E016E000E046E000E036E7FEC13F03B
:103A800008C083FFFCEC1DF012004C6176616E648F
:103A90006F2E2E2E0000000000000000000000002D
:103AA00000000000000000000000456E6368656EC5
:103AB000646F20646520616775610000000000008C
:103AC00000000000000000000000507265206C61E2
:103AD000766167656D3F20202020282A2941716387
:103AE00075612D5370726179202028232950756CDF
:103AF00061722065746170610000000000000000C8
:103B0000000000000000000000000B6E000E0A6EB6
:103B10000B50D8A48EEF1DF090EF1DF093EF1DF029
:103B20000950800F0A6E0B04D8A499EF1DF09BEF8B
:103B30001DF09EEF1DF00950C00F0A6E0A503DECBB
:103B40001BF01200000E056E000E046EAAEF1DF0B1
:103B5000044A052A0150045C0550800A036E025095
:103B6000800A0358D8A0B7EF1DF0B9EF1DF0A8EFF9
:103B70001DF0120001500302F3CF05F0F4CF06F060
:103B800001500402F350062602500302F3500626A9
:103B900005C001F006C002F01200480E016EE80EEA
:103BA000026E010E036E000E046E0FC005F010C011
:103BB00006F0076A086AC5EC16F00104CB6E120025
:103BC00094929494030ECA12CA840C0EBD6E000E19
:103BD000106E640E0F6ECDEC1DF01200000E026E22
:103BE000FCEC1DF0022A310E0264F9EF1DF0FBEF30
:103BF0001DF0F0EF1DF01200000E016E012A180EEC
:103C0000016405EF1EF007EF1EF0FEEF1DF012003D
:103C10005DC001F05EC002F01200070E93160F0E99
:043C200095121200E7
:020000040020DA
:08000000FFFFFFFFFFFFFFFF00
:020000040030CA
:0E000000FF027100FF8380FF0FC00FE00F4072
:00000001FF
